:020000040800F2
:10000000580500209D010008391D0008BD1A000890
:10001000351D0008850200084D2000080000000082
:10002000000000000000000000000000411D00086A
:1000300089020008000000003D1D0008451D000861
:10004000B7010008B7010008B7010008B7010008B0
:10005000B7010008B7010008B7010008B7010008A0
:10006000B7010008B7010008B7010008B701000890
:10007000B7010008B7010008B7010008B701000880
:10008000B7010008B7010008B7010008B701000870
:10009000B7010008B7010008B7010008B701000860
:1000A000B7010008B7010008B7010008B701000850
:1000B000B70100080D1E0008191E0008B70100084E
:1000C000B7010008B7010008B7010008B701000830
:1000D000B7010008B7010008B7010008B701000820
:1000E000B7010008B7010008B7010008B701000810
:1000F000B7010008B7010008B7010008B701000800
:10010000B7010008B7010008B7010008B7010008EF
:10011000B7010008B7010008B7010008B7010008DF
:10012000B7010008B7010008B7010008B7010008CF
:10013000B7010008B7010008B7010008B7010008BF
:10014000B7010008B7010008B7010008B7010008AF
:10015000B7010008B7010008B7010008B70100089F
:10016000B7010008B7010008B7010008B70100088F
:10017000B7010008B7010008B7010008000000003F
:10018000B7010008B7010008DFF80CD000F068F8EC
:1001900000480047752000085805002006488047A1
:1001A00006480047FEE7FEE7FEE7FEE7FEE7FEE75C
:1001B000FEE7FEE7FEE7FEE7F91D000889010008FB
:1001C0002DE9F05F0546002092469B46884606468C
:1001D000814640241BE0284641464746224600F01F
:1001E0002FF853465A46C01A914110D3114618466B
:1001F000224600F016F82D1A67EB01084F462246FA
:100200000120002100F00DF817EB00094E41201EDF
:10021000A4F10104DFDC484631462A464346BDE8E6
:10022000F09F202A04DB203A00FA02F100207047F8
:100230009140C2F1200320FA03F319439040704724
:10024000202A04DB203A21FA02F00021704721FA2B
:1002500002F3D040C2F12002914008431946704792
:10026000064C074D06E0E06840F0010394E8070003
:1002700098471034AC42F6D3FFF78AFF4C210008B0
:100280006C210008FEE7000070470000EFF31080CB
:1002900072B600BFFEE70000B0B5044600F0FAF801
:1002A000054640F20400611CC2F20000007818BF4D
:1002B000044400BF00F0EEF8401BA042FAD3B0BDEA
:1002C0002DE9F04F82B041F6004308224FF0010AB9
:1002D00000264FF00008C4F20203984200F13E43AA
:1002E00008BF072203F1FF734FEAB327072F4FF030
:1002F000000738BF4FEAB32200920A680AFA08F9E9
:1003000012EA090F0FD100BF0236043708F10108C5
:10031000202E04BF02B0BDE8F08F0A680AFA08F97F
:1003200012EA090FF0D0D1F804C00CF0030AAAF1C8
:100330000102012A16D803228468CD684FEA480BCF
:10034000B2409443B5406FEA020E25438560CCF37A
:100350000015446805FA08F524EA090425434560B8
:100360000EE000BF0322BAF1030FB34602FA06F211
:100370006FEA020E04D1B3464FF0030A21E000BF3A
:10038000C2688C68BAF1020F02EA0E0204FA0BF49A
:1003900042EA0402C26014D107F01C020F2303FAE0
:1003A00002F56FF0030303EA58040444236AAB43E5
:1003B0000D6905FA02F21A432262D1F804C00CF06A
:1003C000030A03680AFA0BF21CF4403F4FF0010ADB
:1003D00003EA0E0342EA0302026095D0002243F6CC
:1003E000004C07F00C050F24019243F64402C4F2BE
:1003F000010CAC40C4F202021346126842F480427F
:100400001A601A6802F48042019228F00302019BEC
:1004100062444FF60843CFF6FF739E46D358A3437A
:10042000009C04FA05F52B4342F80E30DCF8082056
:100430004D6842EA0903EC0258BF22EA090343F679
:100440000C42CCF80830AC02C4F2010296461268A5
:1004500042EA090358BF22EA0903CEF80030AC0390
:10046000DCF8042042EA090358BF22EA0903CCF869
:100470000430ED03DCF8002042EA090358BF22EA09
:100480000903CCF800303FE7002A08BF0904816166
:100490007047000040F25010C2F200000068704740
:1004A000B0B5A8B3044690F83D0028B9002084F800
:1004B0003C00204600F0C2F8242084F83D0020686B
:1004C000016821F001010160016841F4004101600F
:1004D000016821F40041016000F050FA48F28041C7
:1004E00040F600120023C0F21E01C0F23D02884215
:1004F0004FF0000138BF0121904248F2A16238BF9D
:1005000001236568C0F20102954238BF0B460BB16A
:100510000120B0BD4DF68361C4F21B31A0FB011276
:1005200021684B6823F03F0343EA92434B60930CEE
:100530000A6A22F03F0C48F2A062C0F20102954222
:1005400013D85A1C01384CF6FF7342EA0C020A62B7
:100550006A00B0FBF2F001306FF31F30042898BF3F
:100560000420CA6922EA030C3FE04FF49672A0F11E
:10057000010E5A4344F6D353C1F26203A2FB032394
:10058000012202EB93124CF6FF7342EA0C020A625C
:10059000CA6922EA030CA3689BB1192004226843AC
:1005A000BEFBF0F0013062F31F30000512D09BB1AA
:1005B000192004226843BEFBF0F0013062F31F30C3
:1005C00011E005EB4500BEFBF0F001306FF31F308A
:1005D0000005ECD1012008E005EB4500BEFBF0F082
:1005E00001306FF31F3040F4004040EA0C00C86156
:1005F0000868D4E9072320F0C000104348F2FF3216
:100600001843086088689043D4E9032318431043D3
:100610008860C868D4E9052320F0FF001043184320
:10062000C860086840F001000860002020212064B4
:1006300084F83D10206384F83E00B0BDB0B586B0AC
:1006400000240594CDE90344CDE90144016845F255
:100650000040C4F20000814201D006B0B0BD43F6B4
:100660003005009400F5D830C4F20205296841F045
:1006700002012960296801F002010091009904211A
:1006800005910321CDE9034112210291C02101917D
:1006900001A9FFF715FE0094286940F400102861B5
:1006A000286900F400100090009806B0B0BD00006A
:1006B00040F2040040F25011C2F20000C2F2000108
:1006C00000780A68104408607047000080B543F65F
:1006D0000040C4F20200016841F400710160016849
:1006E00041F480610160016841F480710160032080
:1006F00000F084F80F2000F005F800F025F8002045
:1007000080BD000070B540F2040604464FF47A71D3
:10071000C2F200063078B1FBF0F040F20C01C2F2F8
:1007200000010968B1FBF0F000F026FB01250F2C59
:1007300008D838B94FF0FF3021460022002500F0DC
:100740002FF87460284670BD82B043F64001002047
:100750000190C4F202014A6842F480424A604A6849
:1007600002F480420192019A0090086840F08050A3
:100770000860086800F080500090009802B0704750
:100780000028B8BF704700F01F010122400902FA9B
:1007900001F14EF20012CEF2000242F82010704732
:1007A00010B500F00F034EF60C5E00F1604CB0F196
:1007B000FF3FA3F10403CEF2000E734403F10C04D7
:1007C000C8BF0CF56444DEF800004FF0FF3CC0F3F6
:1007D0000220C31E80F0070038BF0023042828BF72
:1007E00004200CFA00F021EA00000CFA03F1984012
:1007F00022EA010108430001207010BD4EF60C51A1
:100800004FF6FF03CEF200010A681A4060F30A2295
:1008100042F0806040F0FD70086070472DE9F041C3
:10082000002800F0A88043F6080804460D46C4F2EC
:100830000208D8F8F80300F00700884208D288F8C8
:10084000F853D8F8F80300F00700A84240F093806E
:100850002068810717D5410742BFD8F8001041F43E
:10086000E051C8F80010010742BFD8F8001041F469
:100870006041C8F80010D8F80010A26821F0F0011B
:100880001143C8F80010C00736D06068811E0229E5
:1008900007D258F8081C89015CBF0120BDE8F0812F
:1008A0000DE0012807D158F8081C89035CBF01201E
:1008B000BDE8F08103E058F8081C89075BD5D8F83B
:1008C000001021F003010843C8F80000FFF7E2FD23
:1008D000064641F2883707E0FFF7DCFD801BB8428F
:1008E00084BF0320BDE8F081D8F80000616800F003
:1008F0000C00B0EB810FEFD1D8F8F80300F007003F
:10090000A84207D988F8F853D8F8F80300F0070090
:10091000A84230D12068410707D5D8F80010E26816
:1009200021F4E0511143C8F80010000708D5D8F8A9
:100930000000216920F4604040EAC100C8F80000CE
:1009400000F044F8D8F8001042F20812C0F6000295
:10095000C1F30311515CC84040F20C01C2F2000126
:10096000086040F20800C2F200000068FFF7CAFE0B
:100970000020BDE8F0810120BDE8F08140F20C00CC
:1009800043F6080142F21812C2F20000C4F202015A
:10099000C0F6000200680968C1F38221515CC840BA
:1009A0007047000040F20C0043F6080142F21812B2
:1009B000C2F20000C4F20201C0F600020068096839
:1009C000C1F34231515CC8407047000010B543F696
:1009D0000404C4F20204606800F00C0142F200401A
:1009E000C0F2F400082907D0042918BF10BD41F255
:1009F0000020C0F27A0010BD2168236801F03F0298
:100A000021685B02C1F3881105D4A1FB000100231A
:100A1000FFF7D6FB06E041F20020C0F27A0048431F
:100A2000B0FBF2F021680222C1F3014102EB410167
:100A3000B0FBF1F010BD00002DE9F04182B00028BC
:100A400000F051810446007843F60006C4F2020625
:100A5000C00744D0B06800F00C00042805D130680D
:100A600080033CD56068D0BB3DE1B06800F00C006D
:100A7000082802D170684002F1D46768B7F5803F5A
:100A800006D03068B7F5A02F13D140F48020306035
:100A9000306840F480303060FFF7FCFC054600BF52
:100AA000306880031BD4FFF7F5FC401B6428F7D99E
:100AB000B6E020F480303060306820F48020306070
:100AC000FFF7E8FC0546002FEAD13068800306D521
:100AD000FFF7E0FC411B03206429F6D949E12078A7
:100AE00080072FD5B06810F00C0F07D0B06800F069
:100AF0000C0008280AD17068400207D430688007CB
:100B000019D5E068012840F0EE8014E0E068002884
:100B100000F08A8000200121C4F247200160FFF725
:100B2000B9FC05463068800705D4FFF7B3FC401BCD
:100B30000228F7D974E03068216920F0F80040EA13
:100B4000C10030602078000723D561690020C4F21D
:100B5000472071B10121C0F8801EFFF79BFC0546BC
:100B6000706F800715D4FFF795FC401B0228F7D95A
:100B700056E00021C0F8801EFFF78CFC054600BF40
:100B8000706F800705D5FFF785FC401B0228F7D959
:100B900046E02078400779D5306C4FF00008C0005F
:100BA0000CD4CDF804804FF00108306C40F0805038
:100BB0003064306C00F080500190019847F20007DB
:100BC000C4F200073868C0050FD4386840F480705C
:100BD0003860FFF75FFC05463868C00505D4FFF7AD
:100BE00059FC401B0228F7D91AE0A768012F05D04D
:100BF000306F052F2BD140F004003067306F40F08C
:100C000001003067FFF746FC054641F2883700BF18
:100C1000306F800733D4FFF73DFC401BB842F7D953
:100C2000032002B0BDE8F08100200021C4F247207B
:100C30000160FFF72FFC0546306880077FF582AF23
:100C4000FFF728FC411B03200229F5D991E020F091
:100C500001003067306F20F004003067FFF71AFCA6
:100C60000546002FD1D141F28837306F800706D575
:100C7000FFF710FC411B0320B942F6D979E0B8F127
:100C8000000F1EBF306C20F080503064A769002F29
:100C90006ED0B06800F00C00082828D1012F22D0B7
:100CA0007068E16900F480028A421CD1216A00F078
:100CB0003F028A4217D147F6C071626A0140B1EB28
:100CC000821F10D1A16A4FF6FF72C903914300F44D
:100CD0004032A1F580318A4205D1E16A00F07060AE
:100CE000B0EB016F44D0012002B0BDE8F08140F2CA
:100CF00000080020C4F24728C8F86000FFF7CAFBCC
:100D00000546022F0AD100BF3068800110D5FFF7D9
:100D1000C1FB411B03200229F6D92AE0306880017B
:100D200026D5FFF7B7FB411B03200229F6D920E0A7
:100D300004F11C078FCF0843D90340EA82104FF615
:100D4000FF72914340EA0760A1F58031084370606B
:100D50000120C8F86000FFF79DFB04463068800161
:100D600006D4FFF797FB011B03200229F6D900E008
:100D7000002002B0BDE8F081411E0020B0EB116FF1
:100D80001CBF012070474EF21002F023CEF2000289
:100D900051604EF62351CEF200010B700721906096
:100DA00011607047704700007047000090F83C30B9
:100DB0000222012B5DD010B580F83D20012280F881
:100DC0003C200268D2F804E0D2F808C00C682EF08B
:100DD00070032343536041F2FF73C4F200039A424D
:100DE000BDE810400FDC40F2FF73C4F200039A42EA
:100DF0001BDCB2F1804F31D040F20043C4F200035B
:100E00009A422BD02FE040F2FF33C4F201039A4202
:100E100018DC41F60003C4F200039A421ED00023FE
:100E2000C4F201039A4219D01DE040F60003C4F257
:100E300000039A4212D040F60043C4F200039A42E3
:100E40000CD010E044F20003C4F201039A4205D032
:100E500040F20043C4F201039A4204D149682CF0E5
:100E60008003194391600022012180F83C2080F822
:100E70003D10104670470000002804BF0120704755
:100E800010B5044690F83D0028B9002084F83C00D5
:100E9000204600F01FF80220211D84F83D00206844
:100EA00000F0C0FF012084F8460084F83E0084F87A
:100EB0003F0084F8400084F8410084F8420084F840
:100EC000430084F8440084F8450084F83D00002085
:100ED00010BD000080B586B0002140F600020591EB
:100EE000CDE90311CDE90111C4F20002006890427E
:100EF00038D040F20041C4F20001884248D143F6A4
:100F0000400100200090C4F202010A6842F002028F
:100F10000A600A6802F002020092009A009051F8FA
:100F2000102C42F0010241F8102C51F8101C01F075
:100F30000101009100990221CDE904014020CDE991
:100F4000021101A901900020C4F20200FFF7B8F9D4
:100F50001D2000210022FFF723FC1D20FFF710FCBD
:100F600006B080BD43F6400000910022C4F20200AA
:100F7000016841F0040101600321006800F00400F1
:100F8000009000981E20FFF70BFC1E20FFF7F8FBD7
:100F900006B080BD90F83D1001291CBF01207047AC
:100FA000022180F83D100068C16841F00101C16074
:100FB00041F2FF71C4F2000188420FDC40F2FF7180
:100FC000C4F2000188421BDCB0F1804F31D040F206
:100FD0000041C4F2000188422BD031E040F2FF31E1
:100FE000C4F20101884218DC41F60001C4F200019C
:100FF00088421ED00021C4F20101884219D01FE0AE
:1010000040F60001C4F20001884212D040F60041CF
:10101000C4F2000188420CD012E044F20001C4F294
:101020000101884205D040F20041C4F2010188422A
:1010300006D1816801F00701062904BF002070472E
:10104000016841F0010101600020704790F83C30D8
:101050000222012B00F0C28080B580F83D200122E1
:1010600080F83C204FF67772D0F800C0DCF80830EA
:1010700023EA0202CCF808200B684F2B28DC1F2B38
:1010800042DD202B43D0302B41D0402B40F0A880B4
:10109000D1F804E0C968DCF82030DCF8202022F028
:1010A0000102CCF82020DCF8182022F0F00242EAFD
:1010B0000111CCF8181023F00A0141EA0E01CCF816
:1010C0002010DCF8081041F0470121F030017AE0EF
:1010D0006F2B24DDB3F5005F44D0B3F5805F74D08F
:1010E000702B7DD1D1E90123C9681A4342EA01215D
:1010F000DCF8082022F47F421143CCF80810DCF819
:10110000081041F077015EE00BB1102B68D1DCF8DC
:10111000081021F07001194341F0070153E0502BF2
:1011200032D0602B5CD14A68C968DCF8203023F0EB
:101130001003CCF82030DCF8183023F4704343EA75
:101140000131DCF82030CCF8181023F0A00141EA7E
:101150000211CCF82010DCF8081041F0670121F0F2
:10116000100130E0D1E90123C9681A4342EA0121A4
:10117000DCF8082022F47F421143CCF80810DCF898
:10118000081041F480411EE0D1F804E0C968DCF8A1
:101190002030DCF8202022F00102CCF82020DCF8FE
:1011A000182022F0F00242EA0111CCF8181023F0C6
:1011B0000A0141EA0E01CCF82010DCF8081041F0D9
:1011C000570121F02001CCF808100022002180F8FE
:1011D0003C10012180F83D10BDE88040104670476A
:1011E0000122F3E710B540F220410268C4F2000189
:1011F000A1F120039A4229D1027F012A26D140F28F
:101200001404C2F200042268022A13D0012A18BF73
:1012100010BD40F220024869C2F200021060086866
:1012200020F00A000860086840F002000860022010
:10123000206010BD40F21C024969C2F20002116038
:10124000002100F019F920680130206010BD000075
:1012500090F83C30012B02BF0223184670474FEA3A
:10126000B2020123032A80F83C3000F2CD80F0B5B1
:10127000DFE802F002274563D1E900C50368D1F831
:101280000CE041F2FF77C4F200071A6ABB4222F079
:1012900001021A621A4652F8186F1C6A72DC40F298
:1012A000FF77C4F20007BB427EDCB3F1804F00F051
:1012B000948040F20047C4F20007BB4200F08D80EA
:1012C000A7E0D1E900320668CF68356A120203F060
:1012D0000A0325F0100535624FF2FF0522EA0505E5
:1012E000324667F30F3552F8187F27F473472F43C0
:1012F000356A176025F0A00747EA03133AE0D1E901
:1013000000370668CA68356A62F30717324603F089
:101310000A0325F48075356252F81C5F25F0F30549
:101320002F43356A176025F4206747EA03233362A9
:10133000136823F00C0313605FE0D1E90032066804
:10134000CF68356A120203F00A0325F4805535622E
:101350004FF2FF0522EA0505324667F30F3552F8D2
:101360001C7F27F473472F43356A176025F4204705
:1013700047EA03333362136823F4406313608968D8
:1013800009023BE040F2FF37C4F20107BB4218DC20
:1013900041F60007C4F20007BB421ED00027C4F28A
:1013A0000107BB4219D034E040F60007C4F2000741
:1013B000BB4212D040F60047C4F20007BB420CD03B
:1013C00027E044F20007C4F20107BB4205D040F217
:1013D0000047C4F20107BB421BD126F00306354388
:1013E0000CF00A0724F00A066EF3071537449D61D6
:1013F0001F629F6927F00C079F6189681368194372
:1014000000231160BDE8F040002180F83C10184630
:10141000704746F00105E3E7002804BF012070474C
:1014200010B5044690F83D0028B9002084F83C002F
:10143000204600F01FF80220211D84F83D0020689E
:1014400000F0F0FC012084F8460084F83E0084F8A7
:101450003F0084F8400084F8410084F8420084F89A
:10146000430084F8440084F8450084F83D000020DF
:1014700010BD0000704700004FEAB1034FF0010CAF
:10148000032B50D880B542F23012C0F6000252F859
:1014900023E00368DA6802EA0E02DA6001F01F0254
:1014A0000CFA02FC1A6A22EA0C021A621A6A1A621E
:1014B00041F21112D3F820C01CEA020FBDE88040AF
:1014C0000AD1D3F820C040F244421CEA020F03D1F3
:1014D0001A6822F001021A6008290BD0042912D0E0
:1014E000D1B9012180F83E1080F842104FF0000C75
:1014F00060467047012180F8401080F844104FF09A
:10150000000C60467047012180F83F1080F84310BE
:101510004FF0000C6046704701214FF0000C80F83E
:10152000411080F8451060467047000010B5044631
:1015300000680169890744BFC1685FEA81713BD4D3
:101540000169490744BFC1685FEA417150D401692C
:10155000090744BFC1685FEA017166D40169C90621
:1015600044BFC1685FEAC1617CD40169C9071CBF7F
:10157000C1685FEAC17140F093800169090644BF08
:10158000C1685FEA016100F19A800169490644BFC0
:10159000C1685FEA416100F1A1800169890646BF27
:1015A000C1685FEA816110BD6FF0200101612046D2
:1015B000BDE81040FFF7F8BB6FF0020101610121A7
:1015C00021778069800703D02046FFF70BFE05E0F6
:1015D000204600F08BF8204600F08AF800202077A3
:1015E00020680169490744BFC1685FEA4171AED50F
:1015F0006FF00401016102212177806910F4407FBE
:1016000003D02046FFF7EEFD05E0204600F06EF81F
:10161000204600F06DF80020207720680169090756
:1016200044BFC1685FEA017198D56FF0080101619C
:1016300004212177C069800703D02046FFF7D2FD3F
:1016400005E0204600F052F8204600F051F8002056
:10165000207720680169C90644BFC1685FEAC1619B
:101660007FF583AF6FF01001016108212177C06918
:1016700010F4407F03D02046FFF7B4FD05E020467C
:1016800000F034F8204600F033F80020207720687E
:101690000169C9071CBFC1685FEAC1713FF46DAF42
:1016A0006FF001010161204600F024F82068016913
:1016B000090644BFC1685FEA01617FF566AF6FF05C
:1016C000800101612046FFF76DFB20680169490632
:1016D00044BFC1685FEA41617FF55FAF6FF04001D1
:1016E0000161204600F016F8206856E770470000B8
:1016F0007047000040F600010068C4F20001884213
:1017000018BF704740F210000121C2F200000170C2
:101710007047000070470000002804BF0120704798
:1017200010B5044690F83D0028B9002084F83C002C
:10173000204600F021F8242084F83D002068C1688C
:1017400021F40051C160204600F00CFC20680169C2
:1017500021F490410161416921F02A014161C16890
:1017600041F40051C16000202021206484F83D1024
:1017700084F83E1010BD000080B586B000210591B0
:10178000CDE90311CDE90111026841F20000C4F274
:101790000100824201D006B080BD43F630020091C4
:1017A00000F57040C4F20202536943F01003536124
:1017B000536903F010030093009B0091136843F0FA
:1017C00001031360126802F001020092009A0722DE
:1017D00005920322CDE90312022102914FF4C06168
:1017E000019101A9FEF76CFD06B080BD2DE9F0471F
:1017F000044690F83D0020280DD10F460120002915
:1018000000F05A811646002A08BFBDE8F08794F818
:101810003C00012802D10220BDE8F0874FF0000A09
:1018200001201D46C4F840A084F83C00212084F823
:101830003D00FEF72FFEE684A6848046A068B0F542
:10184000805F07D126694FF00009002E0CBFB94612
:101850003E4602E03E464FF0000984F83CA0E28C90
:1018600020680168BAB36A1C17D0002D4ED100BFA2
:10187000090667D516B116F8011B04E039F8021BFA
:1018800000266FF35F214160E18C0139E184E28C35
:101890000168002AECD11EE0016809065FBF0168FB
:1018A0005FEA016101685FEA016103D4016809062A
:1018B000F2D500BF16B116F8011B04E039F8021B7F
:1018C00000266FF35F214160E18C0139E184E28CF5
:1018D0000168002AE1D1490600F19480002D00F052
:1018E0009780691C40F08480016849065CBF0168EC
:1018F0005FEA416100F186800168490600F182805B
:1019000001684906F0D57DE020680168090606D423
:10191000FEF7C0FDA0EB0800A842F5D912E016B111
:1019200016F8011B04E039F8021B00266FF35F2153
:101930004160E18C0139E184E28C0168002AE5D143
:10194000C9E700BF206850E8030F216820F4D07079
:1019500041E80302E2B1206850E8030F216820F457
:10196000D07041E803029AB1206850E8030F216863
:1019700020F4D07041E8030252B1206850E8030F10
:10198000216820F4D07041E80302002ADAD100BFB8
:10199000206850E8050F216820F0010041E80502A9
:1019A000DAB1206850E8050F216820F0010041E815
:1019B000050292B1206850E8050F216820F001006F
:1019C00041E805024AB1206850E8050F216820F07F
:1019D000010041E80502002ADAD12020002184F824
:1019E0003D0084F83C1084F83E000320BDE8F087F9
:1019F000FEF750FDA0EB0800A84209D82068006857
:101A00004006F5D5202084F83D000020BDE8F08791
:101A1000206850E8030F216820F4D07041E80302E9
:101A2000E2B1206850E8030F216820F4D07041E84B
:101A300003029AB1206850E8030F216820F4D070A7
:101A400041E8030252B1206850E8030F216820F4F6
:101A5000D07041E80302002ADAD100BF206850E8C4
:101A6000050F216820F0010041E80502DAB1206885
:101A700050E8050F216820F0010041E8050292B10D
:101A8000206850E8050F216820F0010041E80502B8
:101A90004AB1206850E8050F216820F0010041E8B4
:101AA0000502002ADAD12020002184F83D0084F8C4
:101AB0003C1084F83E000320BDE8F087FEE70000FC
:101AC0002DE9F04387B043F63000002740F20009CB
:101AD00000224FF4007606970197C4F20200C4F288
:101AE0000209016809F5A05541F020010160016873
:101AF00001F02001019101990197016841F08001F5
:101B00000160016801F0800101910199019701686C
:101B100041F001010160016801F0010101910199A9
:101B20000197016841F0020101604FF40071006803
:101B300000F00200019001982846FEF7A5FC4846F7
:101B40004FF4845100224FF48458FEF79DFC012489
:101B5000CDE904772846CDE9026402AE3146FEF7AE
:101B6000AFFB48463146CDE90477CDE90284FEF764
:101B7000A7FB07B0BDE8F08380B540F2280045F22E
:101B800000414FF4804C00226423C2F20000C4F2F2
:101B900000010262C0E90013C0E90222C0E904C2E8
:101BA000C0E90622FEF77CFC002814BFBDE8804097
:101BB00080BDFEF76BBB000010B58AB040F27C0020
:101BC00040F2004400214FF6FF725323C2F200009E
:101BD000C4F20004CDE90811CDE90611CDE90411E4
:101BE0008161C0E90043C0E902120161CDE902113F
:101BF000CDE90011FFF740F9002818BFFEF746FBBA
:101C00004FF4805006A9069040F27C00C2F200001A
:101C1000FFF71CFA002818BFFEF738FB40F27C00E3
:101C2000C2F20000FFF7F8FB002818BFFEF72EFBFA
:101C300040F27C00002404A9C2F20000CDE9044473
:101C4000FFF7B4F8002818BFFEF720FB0120CDE90C
:101C5000024469460022CDE9004040F27C00C2F215
:101C60000000FFF7F5FA002818BFFEF70FFB0AB0D7
:101C700010BD000080B586B040F2C40040F60002FE
:101C8000002142F20F7C42F2CF03C2F20000C4F204
:101C90000002CDE90411CDE902118161C0E9002300
:101CA000C0E9021C0161CDE90011FFF7E5F8002849
:101CB00018BFFEF7EBFA4FF4805002A9029040F2F1
:101CC000C400C2F20000FFF7C1F9002818BFFEF7F8
:101CD000DDFA00206946CDE9000040F2C400C2F2FE
:101CE0000000FFF763F8002818BFFEF7CFFA06B030
:101CF00080BD000080B540F20C1041F200020021CE
:101D00004FF00C0C4FF4E133C2F20000C4F20102B8
:101D1000C0E90023C0E90211C0E9041CC0E90611B2
:101D2000FFF7FAFC002814BFBDE8804080BDFEF735
:101D3000ADBA0000FEE70000FEE7000070470000BB
:101D400070470000FEF7B4BCB0B592B043F6400057
:101D500000240225CDE90A44CDE908440594CDE9E3
:101D60000344CDE901440094C4F20200016841F04B
:101D700080510160006800F080500090009800944D
:101D800047F20000C4F20000016841F480410160A4
:101D9000A821006800F48040009000980420119071
:101DA0001095CDE90E014FF48000CDE90C504FF4B1
:101DB000803007900120069006A8FEF73DFE20B176
:101DC000EFF3108072B600BFFEE74FF4805005219C
:101DD00005904FF4A05004900F20CDE902540190DB
:101DE00001A8FEF71BFD002804BF12B0B0BDEFF341
:101DF000108072B6FEE700004EF68850CEF200006A
:101E0000016841F4700101607047000040F27C00FD
:101E1000C2F20000FFF78ABB40F2C400C2F2000029
:101E2000FFF784BB40F6FF3C0268C4F2000C60453B
:101E300026DCB0F1804F34D040F20043C4F20003FE
:101E400098422ED040F60003C4F20003984228D0F6
:101E500041F6FF73C4F2000398422CDC604542DC7B
:101E6000B0F1804F64D040F20043C4F200039842C6
:101E70005ED040F60003C4F20003984258D05BE005
:101E800040F60043C4F2000398420AD040F20043F7
:101E9000C4F20103984204D00023C4F20103984223
:101EA000D6D14B6822F070021A4341F6FF73C4F298
:101EB00000039842D2DD43F6FF73C4F20103984257
:101EC00024DC42F20003C4F20003984230D0002325
:101ED000C4F2010398422BD040F20043C4F2010344
:101EE000984225D028E040F60043C4F2000398420F
:101EF0001ED041F60003C4F20003984218D041F608
:101F00000043C4F20003984212D015E044F20003EB
:101F1000C4F2010398420BD044F60003C4F201035B
:101F2000984205D044F20043C4F20103984203D121
:101F3000CB6822F440721A434B6922F080021A43A4
:101F400040F200430260C4F201038A68C2620A6878
:101F5000826240F480629A4204BF096901630121F0
:101F600041617047B0B50446006849F20C650169EB
:101F7000E26821F4405111430161D4F808C0D4E96A
:101F80000423D4F81CE0C16842EA0C02A9431A43B6
:101F900042EA0E021143C1604169A26921F4407115
:101FA0001143416141F2004140F48060C4F20101FB
:101FB000884202D1FEF7F6FC01E0FEF7DFFCE269A1
:101FC00019216368A0FB0101B2F5004F1FD15A002F
:101FD000DB0FFEF7F5F848F21F51C5F2EB11A0FB3D
:101FE00001235A096FF0630302FB0300322303EB62
:101FF000C000A0FB01014FF4F87000EA1110C1F31A
:10200000421100EB0210084321688860B0BD9A00BD
:102010009B0FFEF7D5F848F21F51C5F2EB11A0FB5C
:1020200001235A096FF0630302FB0300322303EB21
:102030000010A0FB0101F02000EA5110C1F3431190
:1020400000EB0210084321688860B0BDFEE7000085
:1020500010B582B004468DF8070040F20C100DF167
:10206000070101220223C2F20000FFF7BFFB204656
:1020700002B010BDFEF72AFBFFF766FEFFF720FD5A
:10208000FFF77AFDFFF736FEFFF796FDFFF7F2FD4B
:1020900042F24014C0F60004204600F023F840F25B
:1020A000C4006FF00102C2F2000001680A610A6117
:1020B000FEF770FF204600F015F800BF0120FEF784
:1020C000EBF8FBE702E008C8121F08C1002AFAD1AA
:1020D00070477047002001E001C1121F002AFBD1A8
:1020E0007047000010B5044601E0FFF7B1FF14F897
:1020F000010B04490028F8D1BDE810400A20FFF781
:10210000A7BF000000000020000000000000000049
:10211000010203040607080900000000010203048D
:102120000200000004000000080000001000000091
:10213000FDFFFFFFFBFFFFFFF7FFFFFFEFFFFFFFCD
:1021400073746D3332663430370D0000702100082F
:102150000000002010000000C420000880210008BA
:102160001000002048050000D420000800000000F6
:102170000000000001000000100000000024F40036
:040000050800018965
:00000001FF
