:020000040800F2
:10000000880E00209D010008252300088720000895
:100010002123000825070008952A00080000000099
:100020000000000000000000000000002B2300087A
:100030002907000800000000292300082D230008DC
:10004000B7010008B7010008B7010008B7010008B0
:10005000B7010008B7010008B7010008B7010008A0
:10006000B7010008B7010008B7010008B701000890
:10007000B7010008B7010008B7010008B701000880
:10008000B7010008B7010008B7010008B701000870
:10009000B7010008B7010008B7010008B701000860
:1000A000B7010008B7010008B7010008B701000850
:1000B000B7010008FD2300080D240008B70100085F
:1000C000B7010008B7010008B7010008B701000830
:1000D000B7010008B70100088D290008B701000822
:1000E000B7010008B7010008B7010008B701000810
:1000F000B7010008B7010008B7010008B701000800
:10010000B7010008B7010008B7010008B7010008EF
:10011000B7010008B7010008B7010008B7010008DF
:10012000B7010008B7010008B7010008B7010008CF
:10013000B7010008B7010008B7010008B7010008BF
:10014000B7010008B7010008B7010008B7010008AF
:10015000B7010008B7010008B7010008B70100089F
:10016000B7010008B7010008B7010008B70100088F
:10017000B7010008B7010008B7010008000000003F
:10018000B7010008B7010008DFF80CD000F0B8FA9A
:1001900000480047F9380008880E002006488047CC
:1001A00006480047FEE7FEE7FEE7FEE7FEE7FEE75C
:1001B000FEE7FEE7FEE7FEE7E92300088901000805
:1001C0002DE9F05F0546002092469B46884606468C
:1001D000814640241BE0284641464746224600F01F
:1001E000DFF953465A46C01A914110D311461846BA
:1001F000224600F0C6F92D1A67EB01084F46224649
:100200000120002100F0BDF917EB00094E41201E2E
:10021000A4F10104DFDC484631462A464346BDE8E6
:10022000F09FD2B201E000F8012B491EFBD27047CB
:100230000022F6E710B513460A4604461946FFF7B2
:10024000F0FF204610BD2DE9FE4F804681EA0300F5
:10025000C00F0C46009021F0004123F00045B8EBA0
:100260000200A94105D24046214690461C460B4655
:10027000024623F00040104347D0270DC7F30A0081
:10028000C3F30A510290401A019040286BDAC3F37D
:10029000130040F4801B0098924620B10023D2EB5B
:1002A000030A63EB0B0B01985946C0F1400250461C
:1002B00000F067F906460D4650465946019A00F08F
:1002C0007FF910EB08006141002487EA115284EAAB
:1002D000E7731A4340D0009A62B3019A012A4FEAA9
:1002E000075215DC001B61EB02014FF0004202EAED
:1002F0000752CDE90042001C41F5801132462B46E1
:1003000000F07FF903B0BDE8F08F40462146F9E7E1
:10031000001B61EB0201001C41F5801300185B41DA
:100320002018A2F5001747EB030140EAD570B61973
:100330006D4111E06D084FEA360645EAC0754FEA97
:100340000752001B61EB0201001C41F580114908B6
:100350004FEA30000019514132462B4603B0BDE848
:10036000F04F00F03FB90098012240000023D0EB8D
:10037000020263EBE073009821464FEAE074B8EBA9
:10038000000061EB0401E9E783F000435BE781F0E3
:10039000004158E72DE9FE4F81EA030404F00044D0
:1003A00021F0004100944FF0000B23F0004350EA8D
:1003B00001045ED052EA03045BD0C3F30A54C1F3D4
:1003C0000A552C44A4F2F3340194A0FB0254C1F367
:1003D000130141F48011C3F3130343F4801301FBB1
:1003E000024400FB034E840A970A44EA815447EA18
:1003F0008357A4FB076802958D0A05FB07854FEA22
:10040000932C04FB0C542705029D4FEA065847EA3B
:100410001637B5EB08056EEB070C870E920E47EA10
:10042000811742EA8312A7FB0201B6EB0B0164EBD2
:1004300000042B0D43EA0C335E1844EB1C50DA46E3
:100440005146E7FB0201C5F313044FEA0B3343EABD
:1004500014534FEA0432019C43EA0603A4F10C044E
:100460000294009CCDE900B400F0CBF803B0BDE8E5
:10047000F08F00200146F9E72DE9F04D81EA0304F1
:1004800004F0004B21F0004514464FF0000A23F021
:10049000004150EA050220D054EA01021DD0C5F304
:1004A0000A570246C5F31303C1F31300C1F30A56FA
:1004B00040F4801543F48013A7EB0608101BD646C2
:1004C00008F2FD3873EB050002D308F1010801E0E2
:1004D00092185B41B8F1000F03DA00200146BDE835
:1004E000F08D00204FF48011064684460EE0171B65
:1004F00073EB050705D3121B63EB050306434CEAB8
:10050000010C49084FEA300092185B4150EA01079C
:10051000EDD152EA030012D082EA040083EA050119
:10052000084305D0101BAB4106D20122002306E090
:1005300000224FF0004302E06FF0010253101AEB6B
:1005400006004CEB085110EB0A0041EB0B01BDE833
:10055000F04D00F047B830B50B4601460020202290
:10056000012409E021FA02F59D4205D303FA02F5C0
:10057000491B04FA02F52844151EA2F10102F1DC20
:1005800030BD202A04DB203A00FA02F10020704737
:100590009140C2F1200320FA03F3194390407047C1
:1005A000202A04DB203A21FA02F00021704721FAC8
:1005B00002F3D040C2F1200291400843194670472F
:1005C000202A06DBCB17203A41FA02F043EAE07317
:1005D00006E041FA02F3D040C2F120029140084304
:1005E0001946704710B5141E73F1000408DA401C58
:1005F00041F1000192185B411A4301D120F0010042
:1006000010BD2DE9F04D92469B4611B1B1FA81F231
:1006100002E0B0FA80F220329046FFF7B2FF0446C3
:100620000F4640EA0A0041EA0B0153465A46084386
:1006300013D0114653EA010019D0C8F140025046C8
:10064000FFF7AEFF05460E46504659464246FFF7B5
:1006500098FF084305D0012004E020463946BDE854
:10066000F08D0020054346EAE0762C4337430A9894
:100670006305E40AA0EB08000022FD0A44EA47549F
:100680000A3002D500200146E9E701051019694149
:10069000DDE9084500196941BDE8F04DA2E7C1F365
:1006A0000A52C1F3130140F2FF3341F480119A4220
:1006B00002DA00200146704740F233439A42A2F228
:1006C000334202DC5242FFF76BBFFFF75ABF000014
:1006D00030B5041E71F1000404DB4FF000444042C9
:1006E00064EB0101141E73F1000405DB1C464FF09E
:1006F0000043524263EB0403994208BF904230BD6D
:10070000064C074D06E0E06840F0010394E807005E
:1007100098471034AC42F6D3FFF73AFD5839000839
:100720007839000800BFFEE7704772B600BFFEE7E9
:100730001FB501244FF4164003F007F8044624B116
:1007400017A002F0A9F900BFFEE7012002F08EFF1A
:1007500004460121084602F0AAFE2044C4B201204A
:1007600000210090CDE901010346024601460390B5
:1007700002F062FE2044C4B20121032002F0CEFE4A
:100780002044C4B20121022002F01BFE2044C4B266
:1007900024B10AA002F080F900BFFEE71FBD0000EF
:1007A00041544B2D4D4F3132313820696E697420E0
:1007B0006661696C6564210D0A00000041544B2D8F
:1007C0004D4F3132313820636F6E666967757265DF
:1007D000206661696C6564210D0A000070B50446ED
:1007E00000F010F906462546681C10B10448007850
:1007F000054400BF00F006F9801BA842FAD370BD83
:1008000008000020F8B502460B4600250024002011
:100810000021D6E0012606FA01F51E6806EA050465
:10082000AC4274D11E7906F00306012E04D01E7965
:1008300006F00306022E13D190684F000326BE4037
:10084000B0434F00DE68BE403043906050680126E0
:100850008E40B0431E79C6F300168E403043506080
:100860001E7906F00306032E09D0D0684F00032638
:10087000BE40B0434F009E68BE403043D0601E79FA
:1008800006F00306022E13D1CF0802F1200656F817
:1008900027004E07F70E0F26BE40B0434F07FF0E4E
:1008A0001E69BE403043CF0802F1200646F82700FB
:1008B00010684F000326BE40B0431E7906F00306C1
:1008C0004F00BE40304310605E6806F44036002E94
:1008D00076D000BF002600963C4E366846F480462F
:1008E0003A4F3E603E46366806F48046009600BFAA
:1008F00000BF374E8F0856F827008E07370F0F2698
:10090000BE40B043334EB24202D1002624E057E04D
:10091000314EB24201D101261EE0304EB24201D129
:10092000022619E02E4EB24201D1032614E02D4ECC
:10093000B24201D104260FE02B4EB24201D105266E
:100940000AE02A4EB24201D1062605E0284EB24204
:1009500001D1072600E008268F073F0FBE40304335
:100960001B4E8F0846F82700224E3068A0435E6871
:1009700006F4801606B120431E4E3060361D3068E6
:10098000A0435E6806F4001606B12043194E361DDA
:100990003060184E361F3068A0435E6806F400369B
:1009A00006B12043134E361F3060361F3068A04317
:1009B0005E6806F4803606B120430E4E083E306075
:1009C000491C1029FFF426AFF8BD0000443802404E
:1009D00008380140000002400004024000080240C4
:1009E000000C0240001002400014024000180240B7
:1009F000001C0240083C01400AB1816101E00B0487
:100A000083617047014800687047000000000020C3
:100A100070B504460CB9012070BD94F83D0028B9AA
:100A2000002084F83C00204600F0DAF8242084F806
:100A30003D002068006820F00100216808602068FF
:100A4000006840F40040216808602068006820F4D5
:100A500000402168086000F0A5FA05465C4960681E
:100A6000884206D85B48854201D2012007E0002079
:100A700005E05948854201D2012000E0002001280C
:100A800000D1C9E75548B5FBF0F62068406820F072
:100A90003F003043216848604D496068884201D872
:100AA000701C07E04FF4967070434FF47A71B0FBFE
:100AB000F1F0401C2168096A21F03F0108432168D8
:100AC000086243496068884214D8681E616849001A
:100AD000B0FBF1F0401CC0F30B00042801D204204D
:100AE0003DE0681E61684900B0FBF1F0401CC0F3B6
:100AF0000B0034E0A06838B9681E616801EB410161
:100B0000B0FBF1F0401C0AE0681E616801EBC10215
:100B100002EB0111B0FBF1F0401C40F48040C0F347
:100B20000B0008B901201AE0A06848B9681E616886
:100B300001EB4101B0FBF1F0401CC0F30B000CE0F5
:100B4000681E616801EBC10202EB0111B0FBF1F01C
:100B5000401CC0F30B0040F4804040F4004021688A
:100B6000C9694CF6FF72914308432168C861D4E912
:100B7000070108432168096821F0C0010843216882
:100B80000860D4E9031008432168896848F2FF32FD
:100B90009143084321688860D4E90501084321682E
:100BA000C96821F0FF0108432168C8602068006817
:100BB00040F001002168086000202064202084F8B3
:100BC0003D000020206384F83E0000BF24E70000C1
:100BD000A086010080841E0000093D0040420F00F5
:100BE00010B586B00446142101A8FFF721FB1B496C
:100BF000206888422FD100BF00200090184800686C
:100C000040F00200164908600846006800F0020043
:100C1000009000BF00BFC020019012200290002071
:100C20000390032004900420059001A90D48FFF7CC
:100C3000E9FD00BF0020009009481030006840F432
:100C400000100749103108600846006800F40010E1
:100C5000009000BF00BF06B010BD0000005400406F
:100C60003038024000040240034800680349097814
:100C70000844014908607047000000200800002077
:100C800010B50D48006840F400700B490860084634
:100C9000006840F4806008600846006840F4807096
:100CA0000860032000F0A2F80F2000F007F800F021
:100CB0002BF8002010BD0000003C024070B5044637
:100CC0000E4800784FF47A71B1FBF0F00C490968D6
:100CD000B1FBF0F5284600F02BFC08B1012070BDF7
:100CE000102C07D200222146501E00F041F8054882
:100CF000046001E00120F2E70020F0E70800002096
:100D00000C0000200400002008B500BF0020009067
:100D10000E48006840F480400C49086008460068AE
:100D200000F48040009000BF00BF00BF0020009092
:100D3000081F006840F08050091F086008460068DE
:100D400000F08050009000BF00BF08BD4438024052
:100D500001460846002809DB00F01F0301229A40E3
:100D600043099B0003F1E023C3F8002100BF704753
:100D70002DE9F05F80460D461646002701F09CFEE7
:100D8000074639462A46334601F00700C0F1070AF4
:100D9000BAF1040F02D94FF0040A01E0C0F1070ACA
:100DA000D14600F1040ABAF1070F02D24FF0000A4F
:100DB00001E0A0F1030AD4464FF0010A0AFA09FA49
:100DC000AAF1010A0AEA020A0AFA0CFA4FF0010B28
:100DD0000BFA0CFBABF1010B0BEA030B4AEA0B0419
:100DE0002146404601F070FEBDE8F09F00BF00F0D4
:100DF0000702064B19684FF6FF031940044B0B43DB
:100E000043EA0221014B196000BF70470CED00E07E
:100E10000000FA0570B504460D460CB9012070BDFE
:100E20005848006800F00700A84209D255490D70E3
:100E30000846006800F00700A84201D00120EEE754
:100E4000207800F0020002281DD1207800F0040074
:100E5000042805D14C48006840F4E0504A49086035
:100E6000207800F00800082805D14748006840F4C1
:100E70006040454908604448006820F0F000A168DF
:100E8000084341490860207800F00100A8B3606879
:100E9000012807D13C4808380068C0F34040B8B981
:100EA0000120BCE76068022802D06068032807D1EF
:100EB000354808380068C0F3406048B90120AEE703
:100EC000314808380068C0F3400008B90120A6E79F
:100ED0002D48006820F00300616808432A49086033
:100EE000FFF790FD064609E0FFF78CFD801B41F2FD
:100EF0008831884202D9032091E707E02248006840
:100F000000F00C006168B0EB810FEDD11D48006866
:100F100000F00700A84209D91A490D700846006878
:100F200000F00700A84201D0012078E7207800F007
:100F30000400042807D11448006820F4E050E16858
:100F4000084311490860207800F00800082808D1FB
:100F50000D48006820F46040216940EAC1000A4958
:100F6000086000F03FF808490968C1F30311074A17
:100F7000515CC8400649086006480068FFF79EFEBD
:100F800000204CE7003C024008380240403900088D
:100F90000C00002004000020014800687047000099
:100FA0000C00002000B5FFF7F7FF04490968C1F302
:100FB0008221034A515CC84000BD0000083802404D
:100FC0005039000800B5FFF7E7FF04490968C1F38D
:100FD0004231034A515CC84000BD0000083802405D
:100FE000503900082DE9F047002400250026A146CD
:100FF0002548006800F00C0020B1042805D008281E
:101000003AD105E0DFF8849039E0DFF8849036E0EB
:101010001D48001F006800F03F041B48001F0068C7
:1010200000F4800078B11A481749091F0968C1F314
:101030008811A0FB01700146224600233846FFF7C5
:10104000BFF805460EE011480F49091F0968C1F3B2
:101050008811A0FB01700146224600233846FFF7A5
:10106000AFF805460848001F0068C0F30140401C67
:101070004600B5FBF6F902E0DFF8109000BF00BFB4
:101080004846BDE8F0870000083802400024F4001C
:1010900000127A00F8B504460CB90120F8BD20789A
:1010A00000F00100002874D0F948006800F00C003E
:1010B00004280DD0F648006800F00C00082813D171
:1010C000F348001F006800F48000B0F5800F0BD1DA
:1010D000EF4808380068C0F34040002859D06068E5
:1010E000002856D10120D9E700BF6068B0F5803FE5
:1010F00008D1E7480838006840F48030E4490839EE
:1011000008601EE06068B0F5A02F0DD1E0480838F7
:10111000006840F48020DE4908390860084600680D
:1011200040F4803008600CE0D9480838006820F4AA
:101130008030D749083908600846006820F48020CC
:10114000086000BF606890B1FFF75CFC054606E0F0
:10115000FFF758FC401B642801D903209EE7CC48C8
:1011600008380068C0F340400028F1D011E0FFF7D4
:1011700049FC054606E0FFF745FC401B642801D901
:1011800003208BE7C24808380068C0F340400028BD
:10119000F1D1207800F0020002285FD1BC4800683D
:1011A00000F00C0058B1BA48006800F00C000828A4
:1011B0001CD1B748001F006800F48000B0B9B448E3
:1011C00008380068C0F3400020B1E068012801D071
:1011D000012063E7AE480838006820F0F800216974
:1011E00040EAC100AA490839086037E0E06800B366
:1011F0000120A8490860FFF705FC054606E0FFF757
:1012000001FC401B022801D9032047E7A048083809
:101210000068C0F340000028F1D09D4808380068FD
:1012200020F0F800216940EAC100994908390860B6
:1012300014E0002097490860FFF7E4FB054606E04C
:10124000FFF7E0FB401B022801D9032026E7904866
:1012500008380068C0F340000028F1D1207800F081
:10126000080008282CD16069A8B101208A490860CB
:10127000FFF7C8FB054606E0FFF7C4FB401B02284A
:1012800001D903200AE782486C300068C0F34000AF
:101290000028F1D014E000207F490860FFF7B2FB7E
:1012A000054606E0FFF7AEFB401B022801D90320EC
:1012B000F4E677486C300068C0F340000028F1D1B4
:1012C000207800F00400042870D1002770483830DE
:1012D000006800F0805090B900BF002000906C487A
:1012E0003830006840F0805069493831086008465D
:1012F000006800F08050009000BF00BF01276748E1
:10130000006800F48070B0B96448006840F48070F0
:1013100062490860FFF776FB054606E0FFF772FBBF
:10132000401B022801D90320B8E65C48006800F49D
:1013300080700028F2D000BFA068012808D154486E
:101340006830006840F001005149683108601DE0D4
:10135000A06805280DD14E486830006840F00400B0
:101360004B49683108600846006840F00100086099
:101370000CE047486830006820F0010044496831BB
:1013800008600846006820F00400086000BFA068FC
:10139000A8B1FFF737FB054609E0FFF733FB401B19
:1013A00041F28831884202D9032077E626E03848A6
:1013B00068300068C0F340000028EED013E0FFF76B
:1013C00021FB054608E0FFF71DFB401B41F2883179
:1013D000884201D9032061E62D4868300068C0F3D7
:1013E00040000028EFD1012F07D12948383000688C
:1013F00020F0805026493831086000BFA0690028DD
:1014000045D02348006800F00C0008285DD0A06992
:10141000022845D100201F490866FFF7F3FA054668
:1014200006E0FFF7EFFA401B022801D9032035E65A
:10143000174808380068C0F340600028F1D1D4E9AB
:1014400007010843616A40EA81110122A06AC2EBE8
:10145000500041EA00412C20005D41EA00600C4947
:10146000091F086001200B490866FFF7CBFA054603
:1014700006E0FFF7C7FA401B022801D903200DE65A
:10148000034808380068C0F340600028F1D049E004
:101490000838024000004742800E4742007000407A
:1014A000002021490866FFF7ADFA054606E0FFF780
:1014B000A9FA401B022801D90320EFE51B48006868
:1014C000C0F340600028F2D12CE0A069012800D1CF
:1014D000E4E51648001D0668A069012820D006F43E
:1014E0008001E06981421BD106F03F01206A814200
:1014F00016D147F6C0703040616AB0EB811F0FD142
:1015000006F440310122A06AC2EB5000B1EB004F5B
:1015100006D106F070612C20005DB1EB006F01D0A8
:101520000120BBE50020B9E5000047420038024039
:1015300070B504462546681EB0F1807F01D30120B6
:101540000FE0681E4FF0E02148610F214FF0FF309F
:1015500001F0BAFA00204FF0E0218861072008610D
:10156000002070BD7047704730B502460B4600BF83
:1015700092F83C00012801D1022030BD012082F800
:101580003C0000BF022082F83D00106844681068EB
:10159000816824F070041868044310684460184D92
:1015A0001068A8421BD01068B0F1804F17D0154DBD
:1015B0001068A84213D0144D1068A8420FD0134DE4
:1015C0001068A8420BD0124D1068A84207D0114DE8
:1015D0001068A84203D0104D1068A84205D121F030
:1015E00080015868014310688160012082F83D0045
:1015F00000BF002082F83C0000BF00BFBDE7000034
:10160000000001400004004000080040000C0040C1
:1016100000040140004001400018004010B504469D
:101620000CB9012010BD94F83D0028B9002084F8C1
:101630003C00204600F026F8022084F83D00211DE1
:10164000206800F0EBFE012084F8460000BF84F81B
:101650003E0001213F200155402001554120015508
:1016600000BF00BF012084F8420043200155442000
:1016700001554520015500BF012084F83D000020A0
:10168000D0E7000010B586B00446142101A8FEF78B
:10169000CFFD2D492068884237D100BF002000903F
:1016A0002A48006840F0020028490860084600689F
:1016B00000F00200009000BF00BF00BF00200090BB
:1016C00022481038006840F00100204910390860B5
:1016D0000846006800F00100009000BF00BF4020F5
:1016E00001900220029003900020049002200590B7
:1016F00001A91748FFF786F8002211461D20FFF7C1
:1017000037FB1D20FFF724FB1BE0124920688842AD
:1017100017D100BF002000900C48006840F0040082
:101720000A4908600846006800F00400009000BF05
:1017300000BF002203211E20FFF71AFB1E20FFF727
:1017400007FB06B010BD0000000400404038024016
:101750000000024000080040014691F83D000128C9
:1017600001D001207047022081F83D000868C06860
:1017700040F001000B68D8601A4B086898421BD0F3
:101780000868B0F1804F17D0174B0868984213D003
:10179000164B086898420FD0154B086898420BD03A
:1017A000144B0868984207D0134B0868984203D03E
:1017B000124B086898420CD10868806800F0070254
:1017C000062A0CD00868006840F001000B68186019
:1017D00005E00868006840F001000B681860002010
:1017E000C0E7000000000140000400400008004085
:1017F000000C00400004014000400140001800407F
:101800002DE9F04104460D46002700BF94F83C0046
:10181000012802D10220BDE8F081012084F83C00BB
:1018200000BF022084F83D002068866826F0770615
:1018300026F47F46206886602868502833D00CDC68
:10184000202850D004DC00284BD0102851D149E08A
:10185000302849D040284CD139E060282DD070285C
:1018600007D0B0F5805F03D0B0F5005F41D10DE047
:1018700041E0D5E902136A68206800F04CFE206858
:10188000866846F077062068866034E0D5E9021362
:101890006A68206800F03FFE2068806840F480405D
:1018A0002168886027E0EA686968206800F047FEE0
:1018B0005021206800F03AFE1DE0EA68696820685F
:1018C00000F098FE6021206800F030FE13E0EA6826
:1018D0006968206800F033FE4021206800F026FE91
:1018E00009E000BF00BF00BF2968206800F01EFEAD
:1018F00001E0012700BF00BF012084F83D0000BFC8
:10190000002084F83C0000BF384684E710B5044648
:101910001B492068884231D1207F01282ED11948E7
:101920000068012802D0022826D117E02068406B09
:101930001549086000BF2068006A20F00A0021688D
:1019400008622068006A40F002002168086200BF57
:101950000C480068401C0B4908600EE02068406B92
:101960000A4908600021204600F0B5F805480068E3
:10197000401C0449086000E000BF00BF10BD00002B
:101980000004004014000020180000201C0000206B
:101990002DE9F04104460D461646002700BF94F895
:1019A0003C00012802D10220BDE8F081012084F82A
:1019B0003C0000BF96B9EB68D5E90012206800F042
:1019C000D1FD2068806920F00C00216888612068C2
:1019D0008069A96808432168886141E0042E13D119
:1019E000EB68D5E90012206800F018FE20688069D5
:1019F00020F440602168886120688069A96840EA15
:101A00000120216888612BE0082E12D1EB68D5E90E
:101A10000012206800F01FFE2068C06920F00C0052
:101A20002168C8612068C069A96808432168C86145
:101A300016E00C2E13D1EB68D5E90012206800F0F7
:101A400026FE2068C06920F440602168C8612068D3
:101A5000C069A96840EA01202168C86100E0012747
:101A600000BF002084F83C0000BF38469CE710B55A
:101A700004460CB9012010BD94F83D0028B900209F
:101A800084F83C00204600F025F8022084F83D0050
:101A9000211D206800F0C2FC012084F8460000BF30
:101AA00084F83E0001213F2001554020015541208E
:101AB000015500BF00BF012084F8420043200155BA
:101AC000442001554520015500BF012084F83D0008
:101AD0000020D0E7704770B504460D46002635B1AA
:101AE000042D0BD0082D10D00C2D1CD114E0206833
:101AF000C06820F002002168C86016E02068C06855
:101B000020F004002168C8600FE02068C06820F061
:101B100008002168C86008E02068C06820F0100054
:101B20002168C86001E0012600BF00BF002E3FD140
:101B300000222946206800F0DDFC00BF2068006A12
:101B400041F21111084050B92068006A891008401C
:101B500028B92068006820F001002168086000BFF3
:101B60001DB9012084F83E000EE0042D03D10121AF
:101B70003F20015508E0082D03D1012140200155E7
:101B800002E00121412001551DB9012084F84200E5
:101B90000EE0042D03D101214320015508E0082D5A
:101BA00003D101214420015502E0012145200155C6
:101BB000304670BD10B5044620680069C0F340008F
:101BC000D8B12068C068C0F34000B0B16FF0020027
:101BD00021680861012020772068806900F00300F7
:101BE00018B12046FFF792FE05E0204600F0ADF860
:101BF000204600F0ABF80020207720680069C0F391
:101C00008000D8B12068C068C0F38000B0B16FF028
:101C1000040021680861022020772068806900F4B0
:101C2000407018B12046FFF771FE05E0204600F035
:101C30008CF8204600F08AF80020207720680069A0
:101C4000C0F3C000D8B12068C068C0F3C000B0B114
:101C50006FF0080021680861042020772068C069BF
:101C600000F0030018B12046FFF750FE05E02046C3
:101C700000F06BF8204600F069F80020207720681B
:101C80000069C0F30010D8B12068C068C0F300102C
:101C9000B0B16FF01000216808610820207720683B
:101CA000C06900F4407018B12046FFF72FFE05E030
:101CB000204600F04AF8204600F048F8002020773F
:101CC0002068006900F0010058B12068C06800F089
:101CD000010030B16FF0010021680861204600F07A
:101CE00037F820680069C0F3C01058B12068C06898
:101CF000C0F3C01030B16FF0800021680861204649
:101D0000FFF730FC20680069C0F3801058B12068EC
:101D1000C068C0F3801030B16FF0400021680861E6
:101D2000204600F021F820680069C0F3401058B147
:101D30002068C068C0F3401030B16FF02000216807
:101D400008612046FFF70FFC10BD70477047000088
:101D5000034A0168914202D10121024A1170704781
:101D60000008004010000020704710B504460CB970
:101D7000012010BDA06900B100E000BF94F83D0053
:101D800028B9002084F83C00204600F027F82420E1
:101D900084F83D002068C06820F400502168C860C5
:101DA000204600F093FC2068006920F490402168F0
:101DB00008612068406920F02A0021684861206895
:101DC000C06840F400502168C860002020642020D2
:101DD00084F83D0084F83E000020CAE710B586B0C4
:101DE0000446142101A8FEF723FA374920688842E7
:101DF00031D100BF002000903448006840F010004E
:101E0000324908600846006800F01000009000BFEA
:101E100000BF00BF002000902C481438006840F03C
:101E200001002A49143908600846006800F00100E2
:101E3000009000BF00BF4FF4C060019002200290EC
:101E400000200390032004900720059001A920485A
:101E5000FEF7D8FC35E01F492068884231D100BF29
:101E6000002000901948001F006840F40030174916
:101E7000091F08600846006800F40030009000BFA9
:101E800000BF00BF0020009010481438006840F0E8
:101E900001000E49143908600846006800F001008E
:101EA000009000BF00BF0C20019002200290002093
:101EB0000390032004900720059001A90448FEF731
:101EC000A1FC06B010BD00000010014044380240E3
:101ED00000000240004400402DE9F84F04460E4641
:101EE000174699464FF0000A94F83E0020285FD12B
:101EF00006B117B90120BDE8F88F00BF94F83C0087
:101F0000012801D10220F6E7012084F83C0000BF3F
:101F100000202064222084F83E0000202063FEF789
:101F200071FD8246A785E785A068B0F5805F04D182
:101F3000206910B90025B04602E035464FF0000890
:101F400000BF002084F83C0000BF29E05346002277
:101F500020212046CDF8009000F0CEFC08B10320EF
:101F6000C9E745B920684068C0F30800A8F8000038
:101F700008F1020811E0A068B0F5805F03D0A06806
:101F800028B9206918B920684068287004E02068E2
:101F9000406800F07F0028706D1CE08D401EE085D9
:101FA000E08D0028D2D1202084F83E000020A2E756
:101FB0000220A0E72DE9F84F04460E461746994641
:101FC0004FF0000A94F83D0020285AD106B117B905
:101FD0000120BDE8F88F00BF94F83C00012801D132
:101FE0000220F6E7012084F83C0000BF00202064B6
:101FF000212084F83D00FEF705FD8246A784E78492
:10200000A068B0F5805F04D1206910B90025B04602
:1020100002E035464FF0000800BF002084F83C0085
:1020200000BF1BE05346002280212046CDF80090DF
:1020300000F062FC08B10320CBE745B9B8F8000016
:10204000C0F308002168486008F1020803E028781E
:10205000216848606D1CE08C401EE084E08C002804
:10206000E0D15346002240212046CDF8009000F0F8
:1020700043FC08B10320ACE7202084F83D00002099
:10208000A7E70220A5E700BFFEE7000000B587B084
:10209000142102A8FEF7CCF800BF002001902F48C1
:1020A000006840F020002D4908600846006800F0F4
:1020B0002000019000BF00BF00BF00200190084633
:1020C000006840F0800008600846006800F080006A
:1020D000019000BF00BF00BF0020019008460068CB
:1020E00040F0010008600846006800F0010001901F
:1020F00000BF00BF00BF002001900846006840F00C
:10210000020008600846006800F00200019000BF6D
:1021100000BF002249151248FEF76EFC00224FF462
:1021200084511048FEF768FC4FF4007002900120C3
:10213000039000200490059002A90948FEF762FB75
:102140004FF48450029001200390002004900590E9
:1021500002A90448FEF756FB07B000BD3038024024
:10216000001402400000024010B50B480B49086003
:1021700064204860002109488160C1604FF48041BB
:102180000161002141618161C1610162FEF740FC92
:1021900008B1FEF7CAFA10BD00540040300000201C
:1021A00000B58BB000200790089009900A90059028
:1021B000069001900290039004901F481F49086008
:1021C0005320486000211D4881604FF6FF71C160B7
:1021D000002101618161FFF721FA08B1FEF7A5FA3C
:1021E0004FF48050079007A91448FFF709FB08B186
:1021F000FEF79BFA1148FFF73AFC08B1FEF795FA93
:1022000000200590069005A90C48FFF7ADF908B12C
:10221000FEF78BFA0020019001200290002003902D
:102220000490002201A90548FFF7B2FB08B1FEF7B0
:102230007CFA0BB000BD00000004004084000020C8
:1022400000B587B00020039004900590069001909F
:10225000029015481549086042F2CF0048600021FD
:102260001248816042F20F71C160002101618161F9
:10227000FFF7D4F908B1FEF758FA4FF480500390F5
:1022800003A90A48FFF7BCFA08B1FEF74EFA00208E
:102290000190029001A90548FFF766F908B1FEF721
:1022A00044FA07B000BD000000080040CC00002048
:1022B00010B50B480B4908604FF4E130486000212D
:1022C00008488160C16001610C2141610021816188
:1022D000C161FFF74AFD08B1FEF727FA10BD000003
:1022E000001001401401002010B50B480B49086094
:1022F0004FF4E1304860002108488160C16001610D
:102300000C21416100218161C161FFF72EFD08B1FF
:10231000FEF70BFA10BD00000044004058010020F9
:1023200000BFFEE700BFFEE77047704710B5FEF73D
:102330009BFC10BD00B593B0302107A8FDF778FFD6
:10234000142102A8FDF774FF00BF0020019024486B
:10235000006840F08050224908600846006800F09C
:102360008050019000BF00BF00BF002001901D48B9
:10237000006840F480401B4908600846006800F48B
:102380008040019000BF00BF01200790000408902A
:1023900002200D9041050E9104210F91A82110916A
:1023A000022111910421129107A8FEF773FE08B1D2
:1023B000FEF7BBF90F20029002200390002004904A
:1023C0004FF4A05005904FF480500690052102A8CC
:1023D000FEF720FD08B1FEF7A8F913B000BD00001C
:1023E00040380240007000400348006840F470002C
:1023F000014908607047000088ED00E010B5024810
:10240000FFF7D8FB10BD00008400002010B5024883
:10241000FFF7D0FB10BD0000CC00002010B5026813
:10242000294B98420ED0B0F1804F0BD0274B9842E9
:1024300008D0274B984205D0264B984202D0264B15
:10244000984203D122F070024B681A431E4B984207
:1024500020D0B0F1804F1DD01C4B98421AD01C4B9D
:10246000984217D01B4B984214D01B4B984211D066
:102470001A4B98420ED01A4B98420BD0194B9842E7
:1024800008D0194B984205D0184B984202D0184BEF
:10249000984203D122F44072CB681A4322F08003A1
:1024A0004C6943EA040202608B68C3620B68836272
:1024B000054B984202D0084B984201D10B69036347
:1024C0000123436110BD00000000014000040040F2
:1024D00000080040000C00400004014000400140A2
:1024E000004401400048014000180040001C00402A
:1024F0000020004030B501F01F05012404FA05F367
:10250000046A9C430462046A01F01F0502FA05F59F
:102510002C43046230BD30B50C46816821F47F4104
:1025200042EA032525432943816030BD0A4681687C
:1025300021F0700142F0070319438160704730B504
:102540000B461446026A056A25F001050562816999
:1025500021F0F00141EA041122F00A021A438161DC
:10256000026230BD70B50C461546066A26F00106BB
:1025700006628169026A184EB04214D0B0F1804FF1
:1025800011D0164EB0420ED0154EB0420BD0154EA3
:10259000B04208D0144EB04205D0144EB04202D022
:1025A000134EB04201D1012600E000261EB121F0F9
:1025B0000301294301E041F0010121F0F001F0267F
:1025C00006EA0316314322F00A0204F00A063243F7
:1025D0008161026270BD0000000001400004004003
:1025E00000080040000C0040000401400040014091
:1025F0000018004030B50B461446056A25F010055A
:1026000005628169026A21F4704141EA043122F0D5
:10261000A00242EA03128161026230BD70B50C462D
:102620001546066A26F0100606628169026A21F4E0
:10263000407141EA052121F470414FF4704606EAE9
:102640000336314322F0A002A02606EA04163243E4
:102650008161026270BD70B50C461546066A26F4AB
:1026600080760662C169026A21F00301294321F0E4
:10267000F001F02606EA0316314322F420624FF4FB
:10268000206606EA04263243C161026270BD70B55D
:102690000C461546066A26F480560662C169026A2F
:1026A00021F4407141EA052121F470414FF4704654
:1026B00006EA0336314322F420424FF4204606EA6C
:1026C00004363243C161026270BD00002DE9F84F4B
:1026D00004462068006920F44050E16808432168FE
:1026E00008612169A068084361690843E1690843FA
:1026F00000902068C06849F20C6188430099084343
:102700002168C8602068406920F44070A1690843CE
:102710002168486176492068884203D0754920685D
:10272000884203D1FEF74EFC814602E0FEF73AFCF8
:102730008146E069B0F5004F6CD102206168A0FBD2
:10274000015003461920A9FB007001462A4638466D
:10275000FDF736FD6421B0FBF1F04FEA001A0220CC
:102760006168A0FB01510B461920A9FB00712A46A4
:102770003846FDF725FD834602206168A0FB015025
:1027800003461920A9FB00712A463846FDF718FDBB
:102790006421B0FBF1F000EBC00101EB0010ABEBEA
:1027A0008000322101EBC0006421B0FBF1F000F0A9
:1027B000F8000AEB400A02206168A0FB01500346C2
:1027C0001920A9FB007001462A463846FDF7F8FC9F
:1027D000834602206168A0FB015003461920A9FB33
:1027E00000712A463846FDF7EBFC6421B0FBF1F09E
:1027F00000EBC00101EB0010ABEB8000322101EBDC
:10280000C0006421B0FBF1F000F0070050442168E3
:1028100088606AE004206168A0FB0150034619202B
:10282000A9FB007001462A463846FDF7C9FC8246DE
:1028300004206168A0FB015003461920A9FB007029
:1028400001462A463846FDF7BBFC6421B0FBF1F097
:1028500000EBC00101EB0010AAEB8000322101EB7C
:1028600000106421B0FBF1F000F0F00A0420616870
:10287000A0FB017003461920A9FB00513A462846E7
:10288000FDF79EFC6421B0FBF1F00AEB001A042076
:102890006168A0FB01510B461920A9FB00712A4673
:1028A0003846FDF78DFC834604206168A0FB01508B
:1028B00003461920A9FB007001462A463846FDF759
:1028C0007FFC6421B0FBF1F000EBC00101EB0010D4
:1028D000ABEB8000322101EB00106421B0FBF1F082
:1028E00000F00F00504421688860BDE8F88F0000B8
:1028F00000100140001401402DE9F04104460D464E
:1029000017469846069E34E0701C88B32EB1FEF739
:1029100079F8A0EB0800B0422BD900BF00BF2168B6
:102920000C3151E8001F21F4D07021680C3141E8CE
:102930000002002AF3D100BF00BF00BF216814319C
:1029400051E8001F21F001002168143141E8000224
:10295000002AF3D100BF202084F83D0084F83E0017
:1029600000BF002084F83C0000BF0320BDE8F081D8
:10297000FFE7206800682840A84201D1012000E05C
:102980000020B842C0D00020F0E700001CB53F484E
:1029900000680068C0F3C00090B100BF0020009044
:1029A0003A48006800680090384800684068009025
:1029B00000BF00BF354800680068344800684068C0
:1029C000324800680068C0F3401020B34FF0FF3376
:1029D000012201A92D48FFF77FFA2D48B0F8000821
:1029E000C0F30E0040F2FF71884215DA9DF8040032
:1029F0002749B1F80018C1F30E01254A505410467A
:102A0000B0F80008401C1146B1F8001860F30E0140
:102A10001046A0F800181BE01D48B0F800086FF33E
:102A20000E001B49A1F800089DF80400B1F8001839
:102A3000C1F30E01164A50541046B0F80008401C6D
:102A40001146B1F8001860F30E011046A0F8001806
:102A50000E4800680068C0F30010B0B10C48B0F830
:102A6000000820F4004000F500400949A1F80008E2
:102A700000BF0020009005480068006800900348EF
:102A800000684068009000BF00BF1CBDFC01002032
:102A90004002002000BFFEE70FB4054B10B503A9AC
:102AA000044A029800F0F6F810BC5DF814FB000030
:102AB000D93800082C00002002480068C0F302202A
:102AC000704700000CED00E010B5002804DB0A0799
:102AD000130E054A135406E00A07140E034A00F0C9
:102AE0000F031B1FD45410BD00E400E018ED00E0FC
:102AF00002E008C8121F08C1002AFAD170477047C7
:102B0000002001E001C1121F002AFBD17047000024
:102B10002DE9FF5F82B00021DDE90430020DDDF810
:102B200040B0034318D044F61050A2F2FF324243A3
:102B30001514119801281FD0A5EB0B00401C5FEA6B
:102B4000000A4FF000064E4FDFF83891B04650466D
:102B500015D5CAF1000413E0119801244AA30128F5
:102B600001D16FEA0B010298119AC0E90031C0E966
:102B7000024206B0BDE8F09FCBF10000DFE704465B
:102B80000021404A491842EB0450CDE9001012E000
:102B9000E00707D032463B4640464946FDF7FAFB80
:102BA0008046894632463B4610461946FDF7F2FB01
:102BB00006460F466410002CEAD1DDE90401DDE988
:102BC0000023BAF1000F06DAFDF7E4FB42464B465C
:102BD000FDF7E0FB05E0FDF74FFC42464B46FDF7F5
:102BE0004BFC04460E460022284BFDF771FD03D82E
:102BF0004FF0FF30014607E00022254B20463146CA
:102C0000FDF721FBFDF74BFD102409E0002C0ADB4A
:102C10000A220023FDF7D4FA039B30321A55641EB2
:102C200050EA0102F2D1641C039AC4F11103144466
:102C3000119A012A03D0012208430DD10AE008436A
:102C400004D000204FF0110B119072E7A3EB0B059D
:102C50006D1E0DE05B4504DD4FF0000205F101053E
:102C600004E003DA4FF00002A5F10105002AECD0E0
:102C700002981199C0E90231C0E9004579E70000E6
:102C8000000014400000F03F300000000000F0435E
:102C90000000E03F2DE9FF4F95B09B468946064670
:102CA00000250FE2252877D100242746F84A012184
:102CB000059400E0044316F8013F203B01FA03F0BD
:102CC0001042F7D130782A2811D06FF02F033078D6
:102CD000A0F13002092A16D8059A44F0020402EB4A
:102CE000820203EB42021044761C0590EFE759F88C
:102CF000042B0592002A03DA504244F40054059054
:102D000044F00204761C30782E2816D116F8010FF4
:102D100044F004042A280DD06FF02F023078A0F17F
:102D20003003092B09D807EB870302EB4303C718CD
:102D3000761CF3E759F8047B761C30786C280FD0AA
:102D400006DC4C2817D068280DD06A2814D104E07E
:102D5000742810D07A280FD10DE044F400140AE052
:102D600044F4801401E044F440147278824202D1A9
:102D700004F58014761C761C307866280BD013DCA2
:102D8000582877D009DC002875D04528F6D0462889
:102D9000F4D047281AD19DE118E0632835D0642883
:102DA00079D0652812D195E1702873D008DC6728A6
:102DB000F1D069286FD06E280DD06F2806D1B5E00C
:102DC00073282CD0752875D0782874D05A46179956
:102DD00090476D1C75E1C4F30250022809D0032806
:102DE0000DD0D9F8001004280DD00D6009F10409A8
:102DF00067E1D9F80010EA17C1E90052F6E7D9F8FF
:102E000000100D80F2E70D70F0E719F8041B8DF843
:102E1000001000208DF80100EA46012003E059F877
:102E200004AB4FF0FF3061074FF0000102D40DE01A
:102E300008F101018846B9420FDA8045F8DB1AF83B
:102E400008100029F4D108E008F101018846814208
:102E5000FADB1AF808100029F6D105985B46A0EBBA
:102E6000080721463846179A00F094FA284400EBE8
:102E7000080507E04DE029E10DE01AF8010B5A467C
:102E800017999047B8F10108F7D25B4621463846BA
:102E9000179A13E142E00A220092C4F302524FF063
:102EA000000A022A08D059F804CB032A4FEAEC7131
:102EB0000AD00DE029E02AE009F1070121F007021C
:102EC000F2E802C1914609E00FFA8CFC4FEAEC717E
:102ED000042A03D14FFA8CFC4FEAEC71002907DA7F
:102EE0000A460021DCF1000C61EB02012D2202E018
:102EF000220504D52B228DF80420012203E0E207ED
:102F000001D02022F7E7904659E00A2102E0102282
:102F10000DE010214FF0000A00910BE010224FF05D
:102F2000000A44F004040827009203E008224FF04E
:102F3000000A0092C4F30252022A05D059F804CBC9
:102F40000021032A08D009E009F1070121F0070256
:102F5000F2E802C1914605E01FFA8CFC042A01D177
:102F60000CF0FF0C4FF00008220728D5702806D07F
:102F7000009B83F0100353EA0A0305D00EE04022C1
:102F80008DF80420012208E05CEA010206D030221C
:102F90008DF804208DF8050002229046009B83F0F6
:102FA000080353EA0A030AD15CEA010201D162076D
:102FB00005D530228DF804204FF001087F1E5828D7
:102FC00004D034A003900EA802900DE036A0F9E7DB
:102FD00053466046009AFDF7F3F884460398825CF6
:102FE0000298401E029002705CEA0100F0D1029843
:102FF00006A9081A00F1200A600702D524F48034DB
:1030000000E00127574502DDA7EB0A0000E00020A1
:1030100000EB0A01009005984144401A0590E00336
:1030200006D45B462146179A059800F0B3F905448B
:10303000002706E001A85A46C05D179990476D1C0D
:103040007F1C4745F6DBE0030CD55B462146179A0B
:10305000059800F09FF9054404E030205A4617997E
:1030600090476D1C0099481E00900029F5DC08E08F
:10307000029802995A460078491C02911799904784
:103080006D1CBAF10001AAF1010AF1DC65E1000052
:10309000092801003031323334353637383961622E
:1030A00063646566000000003031323334353637F2
:1030B00038394142434445460000000000F058F9C9
:1030C0000544761C307800287FF4ECAD19B0284612
:1030D000BDE8F08F620700D4062709F1070222F04D
:1030E000070CFCE80223E14603F000485FEA080C05
:1030F00002D00FF2702C0DE05FEA045C02D50FF2F3
:10310000682C07E05FEAC47C02D00FF2602C01E07B
:10311000AFF2700C4FF0FF3823F00043CDF850C0F1
:1031200065280CD006DC452809D046281DD0472844
:103130003DD13DE0662818D067287ED138E00021D7
:10314000112F01DB112000E0781CCDE9000106A958
:103150000EA8FFF7DDFCDDE90F010E9A03910021B7
:10316000009207F1010A04914DE04FF000400097F2
:10317000CDE9011006A90EA8FFF7CAFCDDE90F0290
:1031800003920E9B11990022DDF80CA0009304928B
:1031900011B9791C00EB010AB7EB0A0004D4C0F1A5
:1031A000FF3007F1010A0490AAEB0700019044E008
:1031B000012F00DA01270021112F01DD112000E08D
:1031C0003846CDE9000106A90EA8FFF7A1FCDDE90C
:1031D0000F010E9A0391002104910092BA46210733
:1031E0000CD40399514500DA8A46BAF1010F05DD86
:1031F000009AAAF10101515C302908D0B84202DAE4
:1032000010F1040F06DA0121CDE9011015E0AAF151
:103210000101E9E7002805DC049901440491AAEBC7
:10322000000102E0411C514500DD8A460499401A24
:10323000401C01904FF000400290200704D40198F8
:10324000504501DBCDF8048000208DF84F00029836
:103250000DF14F07B0F1004F25D02B200E900298B2
:103260004FF0020800280CDA404202902D200E9008
:1032700007E00A210298FDF76EF93031029007F855
:10328000011DB8F10001A8F10108F2DC0298002844
:10329000EFD1791E0E980870307800F0200040F0D1
:1032A000450007F8020D12A8C01B00F1070814988A
:1032B000007800B1012000EB0A01019801EBE071F8
:1032C00005984144401A401E0590E00306D45B4631
:1032D0002146179A059800F05DF805441498007887
:1032E00018B15A46179990476D1CE00324D55B46E8
:1032F0002146179A059800F04DF805441CE0049803
:10330000002807DBDDE90301884203DD0098405C0B
:10331000179901E0179930205A469047049805F113
:103320000105401C04900198401E019004D12E20FC
:103330005A46179990476D1CBAF10001AAF1010A8B
:10334000DDDC05E017F8010B5A46179990476D1C14
:10335000B8F10001A8F10108F4DC5B462146179A98
:103360000598ABE62D0000002B00000020000000B7
:103370002DE9F041044600251E461746880404D472
:1033800005E039462020B0476D1C641EF9D528465B
:10339000BDE8F0812DE9F041044600251E46904627
:1033A000C80301D5302700E02027880404D505E0B4
:1033B00041463846B0476D1C641EF9D52846BDE825
:1033C000F0817CB505460E4600200090019025B1A5
:1033D000012D06D0022D0CD107E001218DF803103C
:1033E00009E008218DF8031005E009218DF803108C
:1033F00001E003207CBD00BF16B1012E08D103E01F
:1034000000208DF8040005E001208DF8040001E0A3
:103410000320EFE700BF64208DF8000019208DF82D
:10342000010032220521684600F09EF904460CB1E5
:103430000120DFE70020DDE72DE9FE4F05460E46BF
:1034400017469846DDE90DABDDF83090002000907E
:10345000019002900F9810B1012808D103E00020DC
:103460008DF8080006E001208DF8080002E0032036
:10347000BDE8FE8F00BF08208DF800008DF80150D8
:103480008DF802608DF803708DF804808DF805903A
:103490008DF806A08DF807B032220921684600F0A9
:1034A00063F904460CB10120E2E70020E0E7F8B53B
:1034B00005460E460020009025B1012D06D0022DB4
:1034C0000CD107E000208DF8010009E001208DF803
:1034D000010005E002208DF8010001E00320F8BDA5
:1034E00000BF16B1012E08D103E000208DF80200C4
:1034F00005E001208DF8020001E00320EFE700BFA6
:1035000009208DF8000032220321684600F02CF9D2
:1035100004460CB10120E2E70020E0E7F8B50446DC
:103520000E46002000900A2C2ED2DFE804F0050998
:103530000D1115191D21252901208DF8010025E007
:1035400002208DF8010021E004208DF801001DE02B
:1035500005208DF8010019E008208DF8010015E024
:103560000A208DF8010011E014208DF801000DE013
:1035700019208DF8010009E028208DF8010005E0F0
:1035800032208DF8010001E00320F8BD00BF16B124
:10359000012E08D103E000208DF8020005E0012093
:1035A0008DF8020001E00320EFE700BF0E208DF848
:1035B000000032220321684600F0D6F805460DB11E
:1035C0000120E2E70020E0E72DE9F04F04460D4638
:1035D00016464FF0000A14B90320BDE8F08F25B954
:1035E000307810B90BB90320F7E7607894F800B091
:1035F00040EA0B2C4AF2A100844501D00120ECE7FF
:10360000E07894F802B040EA0B21881D14F800B06D
:10361000481D205C4BEA002940F60A50814501D044
:103620000120DAE7081D14F80080002705E0381DA6
:10363000205C80EA0A0A781C87B28F42F7DBD0450B
:1036400001D00120C9E70DB1207928704EB10022C8
:1036500004E0501D205CB054501C82B2481E9042C1
:10366000F7D80BB1481E18800020B6E738B50546DC
:103670000020009015B1012D08D103E000208DF845
:10368000010005E001208DF8010001E0032038BDB4
:1036900000BF04208DF8000032220221684600F0AD
:1036A00063F804460CB10120F1E70020EFE770B5A4
:1036B00086B004460020059001900290039004908B
:1036C00014B9032006B070BD02208DF8140001204B
:1036D0008DF815003222022105A800F045F80546B4
:1036E0000DB10120EEE700F0C1F8064600230DF110
:1036F000050201A906F10900FFF766FF05460DB1B5
:103700000120DFE79DF80400802801D00120D9E7DF
:103710009DF8070020709DF8080060709DF8090072
:10372000A0709DF80B00E0709DF80C1021719DF8C1
:103730000D1061719DF80F00A0719DF81010E171DE
:103740009DF8111021720020BCE73EB504462046CA
:1037500000F074F86846FFF7AAFF05460DB1012096
:103760003EBD0020FCE700002DE9F84381460C46F1
:103770001646E01D87B25E2F02DD0120BDE8F8830A
:10378000A0202D490870A1204870200A8870CC70B4
:10379000002506E019F80510281D274A1154681C59
:1037A00085B2A542F6DB0021201D234A11540025D5
:1037B0000AE0201D2049085C291D1F4A515C414038
:1037C000201D1154681C85B2A542F2DB0D21601D3D
:1037D000194A11540A21A01D115400F05DF8F9B2E4
:1037E000154800F06BF80EB90020C7E71FE000F0A5
:1037F0003DF88046B8F1000F14D000231A46694600
:103800004046FFF7E1FE38B99DF80000832801D15A
:103810000020B3E70120B1E7F9B2074800F04EF805
:1038200000F03AF8701E86B26420FCF7D7FF002E35
:10383000DDDC0220A2E700009C01002010B5044658
:103840000848094908600846446000218160C16059
:1038500001610C21416100218161C161FEF785FA9E
:1038600010BD000000440040FC0100200948B0F8F1
:1038700000080121B1EBD03F09D100200549B1F882
:103880000018C1F30E01034A50541046704700203F
:10389000FCE70000400200200748B0F800086FF382
:1038A0000E000549A1F800080846B0F8000820F409
:1038B0000040A1F8000870474002002070B504469F
:1038C0000D464FF0FF332A4621460248FEF772FBB1
:1038D00070BD0000FC01002038B504460D46E0B282
:1038E00000900223012269460248FEF763FB20464E
:1038F00038BD000014010020FDF7C2F9FEF71AFDE3
:10390000FEF7C4FBFEF730FCFEF7D2FCFEF748FCE6
:10391000FEF796FCFEF7E8FCFCF70AFF6FF00100EB
:103920000649096808610549096808610348FDF707
:1039300013FF02E00120FCF751FFFBE7CC00002061
:10394000000000000000000001020304060708094F
:103950000000000001020304783900080000002084
:1039600030000000F02A0008A839000830000020CC
:10397000580E0000002B000800000000100000009E
:10398000010000000024F40000000000000000001E
:103990000000000000000000000000000000000027
:0839A00000000000000000001F
:040000050800018965
:00000001FF
